:100000000C9434000C9451000C9451000C94510049
:100010000C9451000C9451000C9451000C94FA0073
:100020000C9451000C9451000C9451000C9451000C
:100030000C9451000C9451000C9451000C945100FC
:100040000C9451000C9451000C9451000C945100EC
:100050000C9451000C9451000C9451000C945100DC
:100060000C9451000C94510011241FBECFEFD8E026
:10007000DEBFCDBF11E0A0E0B1E0E4EAF3E002C0F2
:1000800005900D92AE32B107D9F721E0AEE2B1E0B2
:1000900001C01D92A833B207E1F70E9454010C94ED
:1000A000D0010C940000229A219A239A57985698CE
:1000B0005F9A5E9A4F9B18C02B9A2A9A29982FEF25
:1000C0008BE792E9215080409040E1F700C00000AA
:1000D0002A98299A2FEF8BE792E92150804090408F
:1000E000E1F700C00000E6CF2B98E7CF82E08093D5
:1000F000B00094E09093B1008093700089EF8093FA
:10010000B3000895CF93DF9300D000D0CDB7DEB712
:100110008FB7F89420912E0130912F01409130013A
:100120005091310129833A834B835C838FBF69816E
:100130007A818B819C810F900F900F900F90DF91AF
:10014000CF910895E4E6F0E080818F7B8083E0E743
:10015000F0E08081826080830895E0E7F0E08081B4
:100160008D7F8083E4E6F0E0808180648083089561
:100170008FB7F89410922E0110922F011092300137
:10018000109231018FBF0895462F572FBC012FB712
:10019000F89480912E0190912F01A0913001B0919F
:1001A0003101840F951FA61FB71F80932E019093D6
:1001B0002F01A0933001B09331012FBF0895462F36
:1001C000572FBC012FB7F89480912E0190912F01E9
:1001D000A0913001B0913101841B950BA60BB70B98
:1001E00080932E0190932F01A0933001B0933101A1
:1001F0002FBF08951F921FB61F9211248F939F93B4
:10020000AF93BF9380912E0190912F01A091300167
:10021000B09131010196A11DB11D80932E019093E3
:100220002F01A0933001B0933101BF91AF919F9105
:100230008F911F901FBE1F901895CF93C82F8A30A3
:1002400019F48DE00E941D018091C00085FFFCCF54
:10025000C093C60080E090E0CF9108958091C000E7
:1002600087FFFCCF8091C60090E008951092C500F2
:1002700083E38093C400E0ECF0E080818D7F808395
:1002800086E08093C20088E18093C10008950E94B7
:100290003601E2E3F1E08EE091E09383828380E037
:1002A00091E0918380830895CDB7DEB728970FB68C
:1002B000F894DEBF0FBECDBF229A219A239A579899
:1002C00056985F9A5E9A0E94760078940E94470141
:1002D00019821A821B821C822A9A299811E001E055
:1002E0004F9B2DC02B9A0E9482006D837E838F834B
:1002F000988789819A81AB81BC812D813E814F8114
:100300005885281B390B4A0B5B0BDA01C901893B65
:100310009B40A105B10520F38CE191E00E94A4016E
:10032000112379F02A98299A10270E948200462FDB
:10033000572FBC0149835A836B837C83D1CF2B9881
:10034000D2CF2A9A2998F0CF0F931F93CF93DF93A0
:10035000E0913401F0913501238100E010E021FDAE
:100360000EC00FEF1FEFC801DF91CF911F910F91CA
:1003700008950995892B11F00FEF1FEFCE01EC01C5
:1003800089916091340170913501DB011896ED91EE
:10039000FC918111EECF8AE00995892B21F3E1CF01
:0403A000F894FFCFFF
:1003A400000000010000000000002E010000000019
:1003B4000002000000001D01000000004E752062D4
:0E03C40079746572207669206967656E0000A5
:00000001FF
